:020000041000EA
:1000000000B5324B212058609868022188439860DF
:10001000D860186158612E4B002199600221596106
:100020000121F02299502B49196001219960352056
:1000300000F044F80222904214D00621196600F024
:1000400034F8196E01211966002018661A6600F04E
:100050002CF8196E196E196E052000F02FF8012189
:100060000842F9D1002199601B49196000215960AB
:100070001A491B48016001219960EB211966A021F2
:10008000196600F012F800219960164914480160C1
:100090000121996001BC002800D000471248134993
:1000A000086003C880F30888084703B5996A0420EC
:1000B0000142FBD001200142F8D103BD02B5186610
:1000C0001866FFF7F2FF186E186E02BD00000240BE
:1000D000000000180000070000035F00212200005C
:1000E000F4000018222000A00001001008ED00E03C
:1000F00000000000000000000000000074B24E7A12
:1001000000200420F7010010C3010010C5010010F9
:10011000C1010010C1010010C1010010C101001097
:10012000C1010010C1010010C1010010C701001081
:10013000C1010010C1010010C9010010CB01001065
:10014000CD010010CD010010CD010010CD01001037
:10015000CD010010CD010010CD010010CD01001027
:10016000CD010010CD010010CD010010CD01001017
:10017000CD010010CD010010CD010010CD01001007
:10018000CD010010CD010010CD010010CD010010F7
:10019000CD010010CD010010CD010010CD010010E7
:1001A000CD010010CD010010CD010010CD010010D7
:1001B000CD010010CD010010CD010010CD010010C7
:1001C00000BE00BE00BE00BE00BE00BEEFF3058054
:1001D000103800BEF2EB8871900A0010AC0A0010D3
:1001E0003802001090A31AE721482249086006C887
:1001F00081F30888104720480068002801D01C4877
:10020000F3E70DA40ECC002902D000F012F8F9E7B4
:100210001A491B4A002000E001C19142FCD1194952
:100220008847194988471949884700BEFDE701C931
:1002300001C29A42FBD37047AC0A0010C0000020F4
:10024000AC3B002098450010B03B002050490020F6
:100250003853001000000420000004203853001020
:10026000001004200010042000000000704700006F
:100270000000000008ED00E0000000D05049002020
:10028000284001207D2C002069010020752C0020D1
:1002900000000000000000001C2236222A221C0060
:1002A0001C3E2A3E223E1C0000143E3E3E1C08001E
:1002B00000081C3E3E1C0800081C1C083E3E0800AE
:1002C00000081C3E3E081C000000000C0C00000052
:1002D0003F3F3F33333F3F3F00001E12121E0000DE
:1002E0003F3F212D2D213F3F0038302C12120C00B2
:1002F0001C22221C081C0800081828080C0E0600E6
:10030000302C342C34360600082A1C081C2A08001D
:10031000040C1C3C1C0C040010181C1E1C181000A3
:10032000081C3E083E1C0800141414141400140089
:100330003C2A2A2C282828001C220C1418221C00D5
:1003400000000000001E1E00081C3E083E1C081C89
:10035000081C3E0808080800080808083E1C080099
:100360000008183E1808000000080C3E0C080000A9
:100370000000000202023E000014143E14140000AB
:1003800008081C1C3E3E00003E3E1C1C08080000E5
:10039000000000000000000008080808080008002D
:1003A000141414000000000014143E143E14140031
:1003B000083C0A1C281E08000626100804323000DB
:1003C000040A0A042A122C00080808000000000091
:1003D000080402020204080008102020201008006F
:1003E000082A1C081C2A08000008083E080800000B
:1003F00000000000080804000000003E00000000AB
:1004000000000000000008000020100804020000A6
:100410001C22322A26221C00080C080808081C008E
:100420001C22201804023E003E20101820221C002E
:10043000101814123E1010003E021E2020221C0034
:100440003804021E22221C003E201008040404006E
:100450001C22221C22221C001C22223C20100E00E6
:100460000000080008000000000008000808040060
:10047000100804020408100000003E003E000000C6
:1004800004081020100804001C22100808000800AE
:100490001C222A3A1A023C00081422223E22220080
:1004A0001E22221E22221E001C22020202221C00E8
:1004B0001E22222222221E003E02021E02023E00B4
:1004C0003E02021E020202003C02020232223C00F4
:1004D0002222223E222222001C08080808081C00B2
:1004E0002020202020221C0022120A060A122200AC
:1004F0000202020202023E0022362A2A22222200A0
:100500002222262A322222001C22222222221C00FF
:100510001E22221E020202001C2222222A122C006B
:100520001E22221E0A1222001C22021C20221C0053
:100530003E080808080808002222222222221C0065
:1005400022222222221408002222222A2A362200D3
:10055000222214081422220022221408080808006B
:100560003E20100804023E003E06060606063E0037
:1005700000020408102000003E30303030303E00D1
:100580000000081422000000000000000000007FAE
:10059000040810000000000000001C203C223C0069
:1005A00002021E2222221E0000003C0202023C0027
:1005B00020203C2222223C0000001C223E023C0063
:1005C0001824041E0404040000001C22223C201CE9
:1005D00002021E222222220008000C0808081C0029
:1005E000100018101010120C020222120E1222001B
:1005F0000C08080808081C000000362A2A2A2200D5
:1006000000001E222222220000001C2222221C00A6
:1006100000001E22221E020200003C22223C20205A
:1006200000003A060202020000003C021C201E00EC
:1006300004041E04042418000000222222322C008C
:100640000000222222140800000022222A2A36005A
:10065000000022140814220000002222223C201C48
:1006600000003E1008043E00380C0C060C0C38004C
:1006700008080808080808080E18183018180E008E
:100680002C1A000000000000002A142A142A00007E
:100690001C3E3E3E3E3E3E3E3E3E3E3E3E3E3E3E9C
:1006A0003E3E3E3E3E3E3E1C007C7E7E7E7E7C008C
:1006B000007F7F7F7F7F7F00003F7F7F7F7F3F00C6
:1006C000070707070000000038383838000000002E
:1006D000000000000707070738383838000000001E
:1006E000383838383F3F3F3F070707073F3F3F3F16
:1006F0003F3F3F3F070707073F3F3F3F3838383806
:100700000000000000003F0000000000003F00006B
:10071000000000003F00000000003F00000000005B
:10072000003F0000000000003F000000000000004B
:10073000002A2A2A2A2A0000001E001E001E00008D
:10074000000000002030383C000000000103070FCB
:100750000F070301000000003C38302000000000BB
:100760000101010101010101020202020202020271
:100770001824041E04243A002214083E083E0800EF
:10078000060A0A163A1212001028081C08080A0461
:1007900004040404040404041010101010101010B9
:1007A00020202020202020201E2121212121211E47
:1007B000000C121212120C00000C1E1E1E1E0C0049
:1007C0001E3F3F3F3F3F3F1E001E121212121E00EF
:1007D0000800080C02221C0000003E020202000079
:1007E00000003F202000000002120A1C22103800E6
:1007F00002120A342A382000080008081C1C0800CD
:100800000000241224000000000012241200000046
:100810002A0015002A0015002A152A152A152A155E
:10082000153F2A3F153F2A3F08080808080808080E
:100830000808080F08080808080F080F0808080823
:100840000A0A0A0B0A0A0A0A0000000F0A0A0A0A20
:10085000000F080F080808080A0B080B0A0A0A0A02
:100860000A0A0A0A0A0A0A0A000F080B0A0A0A0AEE
:100870000A0B080F000000000A0A0A0F000000001F
:10088000080F080F000000000000000F080808080B
:1008900008080838000000000808083F00000000B1
:1008A0000000003F08080808080808380808080879
:1008B0000000003F000000000808083F0808080882
:1008C00008380838080808080A0A0A3A0A0A0A0A08
:1008D0000A3A023E00000000003E023A0A0A0A0AF2
:1008E0000A3B003F00000000003F003B0A0A0A0AE2
:1008F0000A3A023A0A0A0A0A003F003F00000000D2
:100900000A3B003B0A0A0A0A083F003F00000000B9
:100910000A0A0A3F00000000003F003F08080808DC
:100920000000003F0A0A0A0A0A0A0A3E0000000004
:10093000083808380000000000380838080808089F
:100940000000003E0A0A0A0A0A0A0A3B0A0A0A0AC0
:10095000083F003F080808080808080F00000000CA
:1009600000000038080808083F3F3F3F3F3F3F3F37
:10097000000000003F3F3F3F070707070707070743
:1009800038383838383838383F3F3F3F00000000AB
:1009900000002C12122C0000000E120E12120E0279
:1009A0001E12020202020200003E1414141414006B
:1009B0001E12040804121E0000003C12120C00005B
:1009C00000001212120E02020000140A08080800A9
:1009D0001C081C221C081C000C12121E12120C00F7
:1009E000001C2222141436000C0204081C120C00F5
:1009F0000000142A2A14000000081C2A2A1C0800DF
:100A0000001C021E021C0000000C12121212000038
:100A1000001E001E001E000000081C08001C000034
:100A2000020C100C02001E00100C020C10001E0024
:100A3000001028080808080808080808080A040020
:100A40000008003E0008000000140A00140A00001C
:100A50000C12120C000000000000000C0C00000042
:100A60000000000400000000003808080A0A040022
:100A70000A141414000000000608040E0000000010
:100A8000004020110A0404007F3F5F6C757B7B7F70
:100A9000A83F0020B43F0020C03F0020CC3F0020F2
:0C0AA000D83F0020E43F0020F03F002081
:100AAC00F8B5C0460448054B10B5834203D0044B3F
:100ABC00002B00D0984710BD504900205049002011
:100ACC000000000006480749091A8B10C90FC91805
:100ADC0010B5491003D0044B002B00D0984710BD23
:100AEC0050490020504900200000000010B5074C70
:100AFC002378002B09D1FFF7D5FF054B002B02D033
:100B0C00044800E000BF0123237010BDD04C00202E
:100B1C0000000000AC3B0020054B10B5002B03D0AF
:100B2C000449054800E000BFFFF7CCFF10BDC046EC
:100B3C0000000000D44C0020AC3B002010B501F0AC
:100B4C0041F800F02BFA10BD00B585B0124803AB8C
:100B5C0002AA01A902F0D6F9002803D10E490F48C8
:100B6C0001F07EFE0299039A019802F0EBF819202D
:100B7C0001F0D4FFD02380221B0692045A6200F0AD
:100B8C00BBF8074801F0E6FA00F00CF800F090F81A
:100B9C00002005B000BDC04648E20200FC3D00202C
:100BAC005D01002070B53A4D88B03A49280002F03A
:100BBC00E1FE00210600280002F0C2FE0023802284
:100BCC000393F82352025B02009201933400C0237A
:100BDC0010221B03694604A80B340293240302F071
:100BEC00F7FCF3011C43102204A96846059402F09B
:100BFC00EFFC294B32001C4090231B051C43274B58
:100C0C0000210393264B280002936B46019403F0BA
:100C1C002DF8E0239B011A000021280002F024FF8C
:100C2C00E022204B00212800920102F06FFF0122EC
:100C3C0000210A2001F058FFAA6B1B4B072113431C
:100C4C00AB631A2001F036FF002200211A2001F0BC
:100C5C004BFF07210B2001F02DFF07210C2001F089
:100C6C0029FF07210D2001F025FF0024200007217A
:100C7C0001F020FF200000220021013401F034FF9C
:100C8C000A2CF3D10222094BFF321A6008B070BD56
:100C9C0000003050303E0020FFFFFFE06001000CF0
:100CAC000000A901FF3B0004FF03000000203050AE
:100CBC00F8B590250D4E0E4C2D0280228027520047
:100CCC00BF0063681342FCD1216A3942F9D1094B48
:100CDC008801000CC318AB4201D23154F1E70D2846
:100CEC00EFD8FF23194000F09DF8E6E7745600207A
:100CFC000000305000F0FFFF10B51949194A1A4B8B
:100D0C00885CCB5C00021843184BCA5C184B12046D
:100D1C00CB5C1043174A1B060343934214D1802229
:100D2C004B7808781B025201034393420CD88B7802
:100D3C0011485A1E9341114ADBB2137080220331C1
:100D4C00120102F045FC09E000220C4B0A481A7013
:100D5C0080220B4B1201196802F03AFC10BDC04600
:100D6C0000001E1005080000040800000608000022
:100D7C000708000031414756304E00202440012026
:100D8C0074400020002210B5044B05481A70054B26
:100D9C0080321968120102F01BFC10BD24400120A6
:100DAC00304E00207440002070B590263601300083
:100DBC0002F0D2FB0400154D3200FF2102F002FCC0
:100DCC002A000021200002F0FDFB8022104B11496B
:100DDC001B78E01C12012580A37002F0F9FB0E4A6F
:100DEC000E4B8021E250F0231B069C460C4D490112
:100DFC006544280003F072FC32002800210003F047
:100E0C00ADFC200002F0C6FB70BDC0460808000017
:100E1C0024400120304E0020314147560408000088
:100E2C0000001E1010B50D2806D84E4B80001B5824
:100E3C009F464D4BC900196010BD01230B4201D0D8
:100E4C004A4A13708B07F7D50022484B1A70F3E708
:100E5C0001230B4201D0464A13708B07ECD50022BC
:100E6C00434B1A70E8E701230B4201D0414A13703F
:100E7C008B07E1D500223F4B1A70DDE7CB0702D57B
:100E8C0000223D4B1A708B07D6D501223A4B1A70B3
:100E9C00D2E7354A39481368C15401335B055B0D01
:100EAC001360C9E7012959D0022954D00029C3D1B4
:100EBC00FFF768FFC0E701230B4201D0304A1370E3
:100ECC008B07B9D500222E4B1A70B5E701230B42C4
:100EDC0001D02C4A13708B07AED50022294B1A7007
:100EEC00AAE701230B4201D0274A13708B07A3D525
:100EFC000022254B1A709FE701230B4201D0234A95
:100F0C0013708B0798D50022204B1A7094E701239D
:100F1C000B4201D01E4A13708B0700D48CE70022C1
:100F2C001B4B1A7088E701230B4201D0194A13702E
:100F3C008B0700D480E70022164B1A707CE7012344
:100F4C000B4201D0144A13708B0700D474E70022B3
:100F5C00114B1A7070E7FFF727FF6DE7FFF7CCFE18
:100F6C006AE7C046703E00202C4E00202340012032
:100F7C00204001202440012022400120304E00203E
:100F8C00684000201F4001201D4001201E40012010
:100F9C001B4001201C40012021400120F0B5C64619
:100FAC00174B0126984600B5164C174D174F237852
:100FBC002A787340DBB2D2B2002B03D0002A01D0C6
:100FCC0000F08AFB22782B78DBB2002A03D0002BAE
:100FDC0001D000F0A3FB43461B78002B05D13B78D6
:100FEC00002BE4D000F080FDE1E72078C0B200F0E7
:100FFC003FFA3B78002BDAD000F076FDD7E7C046FD
:10100C001E400120214001201F400120684000208B
:10101C00F8B58C24244B444319680F250C1900F0A7
:10102C00E9FE224B844603614361214B214E8361CF
:10103C0003002100204C1C3366442F000A78174013
:10104C007F00E05B12090704074352001F60A75A98
:10105C003A043A432F005A604A78023117407F0015
:10106C00E05B12090704074352009F60A75A3A0439
:10107C003A43DA6010339E42DFD1104B1B78002BC1
:10108C000CD0C02261460B4BD200CA508E235B00A1
:10109C0062466046136000F0CFFEF8BD0123624645
:1010AC0053601C23FF33F3E7604000200008000866
:1010BC00000C000C7C040000503E00202440012059
:1010CC00F8B5234B05001B78002B37D0214B1E683D
:1010DC00462400F08FFE204B6C43036143611F4B91
:1010EC0084468361030034190F261D4F1D4D1C339C
:1010FC00674431002278013411404900685A1209C2
:10110C0001040143520019605960A95A0A040A43A8
:10111C009A60DA6010339F42EBD1134B1B78002B93
:10112C000FD0C02261460E4BD200CA508E235B00FA
:10113C0062466046136000F07FFEF8BD0B4B1E68E4
:10114C00C6E70123624653601C23FF33F0E7C04619
:10115C00224001206440002000080008000C000C14
:10116C007C040000503E0020244001206040002000
:10117C00F0B54546DE4657464E46E0B5454B0500B4
:10118C001B7883B0002B00D181E0434B1E6800F02C
:10119C0031FE0700BC46414B019003614361404B5B
:1011AC008361404BA800DA8B1B88140414433E4A1D
:1011BC0019046244009240229346203A4019924608
:1011CC00103A91461943083AC300181A90463B004E
:1011DC00043A9446022730181C33002686570D001B
:1011EC000278002E00DA25005E461D600D001642C6
:1011FC0000D0250056465D600D00164200D025003B
:10120C004E469D600D00164200D025004646DD601E
:10121C000D00164200D0250066461D610D001642D9
:10122C0000D025005D610D00174200D025009D61A6
:10123C00D2071CD5009ADC61203301309A42CCD104
:10124C001A4B1B78002B1CD0C022174B0199D200D3
:10125C00CA508E230A005B001000136000F0ECFDF6
:10126C0003B0F0BCBB46B246A946A046F0BD009AFE
:10127C00D961203301309A42AFD10C4B1B78002B33
:10128C00E2D10123019A53601C23FF33E4E7084B9E
:10129C001E687CE722400120644000200008000802
:1012AC00000C000C503E00207C0400002440012067
:1012BC0060400020F0B5DE4657464E464546E0B548
:1012CC00634A0300127883B0002A00D1B7E0614A68
:1012DC00166846205843361800F08CFD07005E4B0C
:1012EC00BC46036143615D4B019083615C4B3200F2
:1012FC00D88B5C4E050066441B880096402604047F
:10130C001904254308431C4319433B00B046303EA7
:10131C00B4460C3EB146033EB346AA461C3309E024
:10132C005646AD0700D42600009DDE612033023204
:10133C009D4249D0464615786FB22E4200D178E0D6
:10134C002600002F00DA56461E6066462E426BD0F1
:10135C002600AF0600D556465E604E462E425ED045
:10136C0026002F0700D556469E605E462E4251D071
:10137C005646AD0700D42600DE60464655786FB25F
:10138C002E4242D02600002F00DA56461E616646D9
:10139C002E4235D02600AF0600D556465E614E462D
:1013AC002E4228D026002F0700D556469E615E4659
:1013BC002E42B5D10600AD07B6D40E00009DDE61FD
:1013CC00203302329D42B5D1274B1B78002B39D0EC
:1013DC00C022244B0199D200CA508E230A005B0014
:1013EC001000136000F028FD03B0F0BCBB46B24601
:1013FC00A946A046F0BD0E002F07D7D50600D5E7AD
:10140C000E00AF06CAD50600C8E70E00002FBDDAE5
:10141C000600BBE70600AD07AED40E00ACE70E002D
:10142C002F07A1D506009FE70E00AF0694D5060046
:10143C0092E70E00002F00DB86E7060084E70B4ADC
:10144C00166846E70123019A53601C23FF33C7E754
:10145C00224001206440002000080008000C000C11
:10146C00503E00207C0400002440012060400020FD
:10147C0070B5060000F024FD302000F08DFD184BF7
:10148C001B78002B2AD0174D174B1B78002B00D044
:10149C00164D174B1B78002B00D0164D0024200046
:1014AC000134A847A02CFAD1002E0CD0142000F047
:1014BC0063F9152000F060F9162000F05DF9172093
:1014CC0000F05AF970BD20000134A847C02CF9D0A7
:1014DC0020000134A847C02CF5D1F3E7064DD3E723
:1014EC001C4001203106002023400120D50800209B
:1014FC002040012091070020E1060020F0B5D646DF
:10150C0046464F46C0B5060000F074FC050000F0DE
:10151C0071FC304B82461B78002B53D02E4B186835
:10152C002E4B51461A782E4F531E9A412823524265
:10153C00134028335E430F2398462A4B86199C464A
:10154C001C20294A2A610A616A614A61274AAA61F8
:10155C008A61444631780B095B00FB5A214099465D
:10156C00737849001A0923405B00FB5A795A1B0413
:10157C000B4361465200BA5A0B432B5013044A4694
:10158C00134352460B43135004300236BC28E0D1AF
:10159C00174B1B78002B18D0C023DB002B5013509B
:1015AC0003236B605360293352462B602800136071
:1015BC0000F042FC504600F03FFCE0BCBA46B1469D
:1015CC00A846F0BD0B4B1868AAE707236B60536065
:1015DC002433E9E7224001206C4000201D4001200B
:1015EC00503E0020000A000A00080008000C000C05
:1015FC002440012070400020F0B5C64600B506001E
:10160C0000F0F8FB050000F0F5FB2A4B80461B7838
:10161C00002B46D0284B1868284B41461A78531E8D
:10162C009A4128235242134028337343C0180F2386
:10163C00234A9C462A610A616A614A61214A224E08
:10164C00AA618A611C2221496446037801301C403E
:10165C006400345B1B095B00F75A230423434446A4
:10166C000B43AB503B043B430B43A3500432BC2A0B
:10167C00EAD1174B1B78002B16D0C023DB00AB50E4
:10168C00A35003236B606360293342462B60280010
:10169C00136000F0D1FB404600F0CEFB80BCB84696
:1016AC00F0BD0C4B1868B7E707236B6063602433FD
:1016BC00EBE7C046224001206C4000201D40012079
:1016CC0000080008000C000C503E0020000A000A24
:1016DC00244001207040002010B500F0F1FB3020B8
:1016EC0000F05AFC0C4B00241B78002B06D0200079
:1016FC000134FFF703FF182CF9D110BD2000013481
:10170C00FFF77AFF182CF8D020000134FFF774FF94
:10171C00182CF3D1F1E7C0461D40012010B500F0A4
:10172C00CFFB302000F038FC124B00241B78002B30
:10173C0012D020000134FFF7E1FE142CF9D1142053
:10174C0000F01AF8152000F017F8162000F014F825
:10175C00172000F011F810BD20000134FFF74CFFEA
:10176C00142CECD020000134FFF746FF142CF3D1DD
:10177C00E5E7C0461D400120D04BF0B51B78DE4696
:10178C005A1E93415A42282357464E46454613400B
:10179C002833E0B55843CA4B8BB01B78002B00D1D3
:1017AC0086E1C84B1B681A00059394468444634633
:1017BC000393802394461B01C3186344C24A0493C9
:1017CC00431C944606930300634407930023089339
:1017DC00BE4B994600F00EFBBD4B089A036143616A
:1017EC00BC4B944683610A23010000240193BA4B3D
:1017FC000126634409901C3102930094ACE0009CD8
:10180C00059F049B07981A5D84463B00069D634424
:10181C00185DAC463B007F2563441B5D029CDB00DE
:10182C00E35C039F2B40009DDB017F5D7F25FF0068
:10183C00E75D02242F403B430F274D4617407F00A6
:10184C00ED5D0F27AC464D46120952000740AA5CCD
:10185C0000097F004000EF5D285C1504A8461C427F
:10186C0002D064462404A04692461E4200D0E246B2
:10187C005446454625439C08A2461404A0460D60D8
:10188C0054460225254202D064462404A046544600
:10189C009346264200D0E34645465C4625431C0948
:1018AC00A2461404A0464D6054460225254202D09F
:1018BC0064462404A04654469346264200D0E34690
:1018CC0045465C4625438D6002259C09A0461204C2
:1018DC00254201D06246120444468446264200D07A
:1018EC00BC4664462243CA601A0A944602256446E2
:1018FC000204254200D03A0464468046264200D0B9
:10190C00B846444622430A619A0A94460225644624
:10191C000204254200D03A0464468046264200D098
:10192C00B8464446224302241B0B4A6102041C4263
:10193C0000D03A041E4200D03800009B1043023302
:10194C0088610093019B1C3107331A00019391238A
:10195C005B009A4200D187E0584B1B78002B00D0DB
:10196C004DE7009A4D46531C9846049B7F24985C87
:10197C00039B9B5C029ADB00D25C0F2303400009A3
:10198C005B004000EB5C285C1440164238D1050427
:10199C00AC46070065462F4302250F60154238D12F
:1019AC000504AC46070065462F4304254F601542DD
:1019BC0038D10504AC46070065462F4308258F60D7
:1019CC00154238D10504AC46070065462F43102557
:1019DC00CF60154238D10504AC46070065462F434D
:1019EC000F61920638D4020007043A434A61A409F5
:1019FC0038D10300000403438B6143460093A1E7F5
:101A0C001D04AC461F0065462F4302250F6015428E
:101A1C00C6D01D04AC461F0065462F4304254F60FD
:101A2C001542C6D01D04AC461F0065462F43082541
:101A3C008F601542C6D01D04AC461F0065462F436F
:101A4C001025CF601542C6D01D04AC461F0065465C
:101A5C002F430F619206C6D51A001F043A434A6100
:101A6C00A409C6D01804C6E71C4B1B78002B17D052
:101A7C00C02209991A4BD200CA508E2308005B0071
:101A8C000B6000F0D9F9089B01330893082B00D0A8
:101A9C00A0E60BB0F0BCBB46B246A946A046F0BDD2
:101AAC000123099A53601C23FF3310001360E8E7ED
:101ABC000C4B1B681A00059377E6C0461B400120AF
:101ACC00224001207040002001080000503E002000
:101ADC0000080008000C000C304E002024400120AF
:101AEC007C0400006C40002010B500F0E9F93020B7
:101AFC0000F052FA002420000134FFF73DFE182CB0
:101B0C00F9D110BDF0B501273C00294DA0212A6860
:101B1C00284B9440284EC9053068CC502533FF33F0
:101B2C0043432649C8184468002C32D18368BB4310
:101B3C008360EFF3108472B6214A1368002BFCD03B
:101B4C00BFF35F8F336807205A1CA6230240DB00CB
:101B5C0032605A438B189E683040032807D0BFF37D
:101B6C005F8F0022164B1A6084F31088F0BD042698
:101B7C009868304398608B5828689E1CA023DB051E
:101B8C009C46130080010C336044CB180360C66183
:101B9C00E5E7013C4460A024E405A446C858920142
:101BAC000C3362440230CB181360D061DEE7C046C0
:101BBC00144001200C040000084001208416012070
:101BCC007C0100D030B51F208BB000F0F3FE1F203D
:101BDC0000F00AFF7649774801F0CCFE00210400A2
:101BEC00744801F0ADFE002380220593F8235202C5
:101BFC005B0202920393C02310221B0302A906A8C6
:101C0C00049301F0E5FC631CE21D1203DB0113439A
:101C1C0006A9102202A8079301F0DAFCF0239B031B
:101C2C000293654B1C22059301230021009361480C
:101C3C0001F0BEFF06211C2000F03CFF2200002119
:101C4C005C4802AB02F012F880225A4952024B68EF
:101C5C001C0014401342FAD14D2356480B615749CE
:101C6C0001F088FE01210500524801F069FE802236
:101C7C00F82352025B0202920393C02310221B032F
:101C8C0002A906A80493059401F0A2FC2A006B1C7F
:101C9C000A321203DB01134306A9102202A8079390
:101CAC0001F096FCF0239B030293454B1B220593FA
:101CBC000123012100933F4801F07AFF06211B20EC
:101CCC0000F0F8FE2A0001213A4802AB01F0CEFFE9
:101CDC008022384992024B681C0014401342FAD1FE
:101CEC00384B34484B61384901F044FE0221050061
:101CFC00304801F025FE8022F82352025B0202924A
:101D0C000393C02310221B0302A906A80594049375
:101D1C0001F05EFC2B000833EA011B03134306A9F8
:101D2C00102202A8079301F053FCF0239B02274AD0
:101D3C000293274B02210492059301230E22009358
:101D4C001C48083301F034FF0E2420000621013416
:101D5C0000F0B0FE172CF8D1AA1C02AB02211548DA
:101D6C0001F084FF012001F0DBFDA021C9058C46A8
:101D7C000021184BC2021860174B184C1340184A1C
:101D8C001A438301634419605C6099601A610123F2
:101D9C008340144A0B201360134900F061FE0121AB
:101DAC000B2000F03FFE114B114A1A600BB030BDF6
:101DBC00C43E0020000020509C031004DC3E002098
:101DCC007B03100409020000A83E002000000E4016
:101DDC00CE01902414400120FD7F00FF18002050FC
:101DEC00190001000424005025110020002020506F
:101DFC0007070000F0B5A6260D4B01229C460D4F9F
:101E0C00F6003D686E43981904001100836808348D
:101E1C0019401A42F8D163469951C023DB04C360C0
:101E2C00072301351D403D6041602260F0BDC04676
:101E3C00841601200440012010B50022C646036818
:101E4C0000B504339B001A50EFF3108C72B6184A8D
:101E5C001368002BFCD0BFF35F8F02228368154CF4
:101E6C0013438360144B1A68A623DB0053430722E9
:101E7C00E11888680240032A10D104208A680243C2
:101E8C00A020C00580468A601A590C33911C0B4A5D
:101E9C001B191268920142441360D161BFF35F8F2A
:101EAC000022034B1A608CF3108810BCA04610BDA6
:101EBC007C0100D084160120084001201440012030
:101ECC00F8B5A624324B01229C461E68E4007443EC
:101EDC003049081905001700836808351F401A425D
:101EEC00F8D107232A60751C2B4065462B60802394
:101EFC00DB04C360230014001033CB189B085B4237
:101F0C001C40A44647601A4240D0C0230122DB0487
:101F1C000361A623C024C0255B0073431F1D6744C7
:101F2C00BF00E404CF19ED043C607D60BC60FD6033
:101F3C003C617D61BC61FD613C627D62BC62FD62A5
:101F4C003C637D63BC63FD633C647D64BC64FD6485
:101F5C003C657D65BC65FD653C667D66BC66FD6665
:101F6C003C677D67BC67FD6764462032002C05D159
:101F7C009B18C02204339B00D204CA50A623DB005A
:101F8C005E4321238B51FFF757FFF8BD0022C0E7BA
:101F9C000440012084160120F0B5D6464F46464633
:101FAC000500C0B5002804D1E0BCBA46B146A8462D
:101FBC00F0BDA624404BE4001F6899467C430122E7
:101FCC00A2463E4E301904001100836808341940B3
:101FDC001A42F8D15346F150C023DB049846C36033
:101FEC007B1C9C4622600723644623404C4623609E
:101FFC006B1E9C464160012D54D053461033F31890
:10200C009B085C42023D1440052D1FD9002C51D079
:10201C0043462100036163461B1B9846A6235B00C5
:10202C007B43424604331B19C025C0249B00520835
:10203C00F318D200D218E404ED0430C39342FCD15F
:10204C00012342469A43891890452BD0A623C024DD
:10205C005B007B435A1804329200E404B4504A1CCF
:10206C0094451FD99A1804329200B4508A1C944596
:10207C0018D99A1804329200B450CA1C944511D93C
:10208C009A1804329200B4500A1D94450AD99A1831
:10209C00043292000531B4508C4503D95B180433DB
:1020AC009B00F450A623DB005F436346F351FFF71C
:1020BC00C3FE79E70021AEE704400120841601201D
:1020CC0003BDC04610B5040001F094F8A04710BD44
:1020DC00F0B5040087B00F200E00170000F0B4FC20
:1020EC00002105000F2000F09DFC0023002200922F
:1020FC00019301230293D023049605940026002417
:10210C000121022003971B06002C14D01A6D1042DB
:10211C00FCD05C6540BF1A6D114203D120BF1A6D13
:10212C001142FBD09A6DA2420AD000266C46B20036
:10213C00A458E9E79A6D1A6D1142FBD140BFE5E74F
:10214C000136052EF2D929000F2000F06BFC07B0E8
:10215C00F0BDC0460B4B0C4A10B5934201D2012383
:10216C005B420A4C0A4A190092681851FF20A44697
:10217C00C0001B50074B0848C85008486144FFF783
:10218C00A7FF10BD0008042000000420F407000085
:10219C0000ED00E0FC070000E5160020E116002031
:1021AC00024B9C466144890001607047400000343A
:1021BC00F8B5134D134E2C00FF27B5421ED22368E1
:1021CC00002B0FD000F0EAFB01002800FFF7E8FF1E
:1021DC00A780BFF35F8F0834B4420FD22368250069
:1021EC00002BEFD100F0DAFB01002800FFF7D8FF3D
:1021FC002771BFF35F8F0834B442EFD3F8BDC046EC
:10220C0000490020104900200A4B1968EFF3108098
:10221C0072B60A68002AFCD0BFF35F8F1B68BFF34D
:10222C005F8F00221A6080F3108840BF00200021CD
:10223C007047C04610400120F0B5DE4657464E466A
:10224C004546E0B585B0EFF30582032313409A00B1
:10225C0011000392B64A5258904601229A40B54B4F
:10226C0091461A6031E043469B881BB2002B00DB81
:10227C009DE043469B79002B00D0EFE043460824B9
:10228C001C5F002C00DA17E1424652696300944649
:10229C001B19DB0063449C68DD68631C00D113E1EF
:1022AC00A54B03999C4661449A6A0B69A01A9B1A28
:1022BC00984200D20C61A04800F0C0FA241A8D415B
:1022CC00002D00DDF8E000D12EE14B469A48436327
:1022DC00434608229B5E9A46002BC4DB4246526959
:1022EC005B0093465344DB009B445B469E68DF686F
:1022FC0000F0A4FA801BB9410029B4DB002F00DAEE
:10230C00EDE05B468D4A1B69934200D1E0E041460B
:10231C005A460820085E5288000410435A465169F8
:10232C00984704000D0023002B4300D1D7E0002D6B
:10233C0000DBF0E0361BAF4134003D005B469C6097
:10234C00DD600021595E00298DDB43465B6922006C
:10235C009C462B0048004018C00060448668C76843
:10236C00921BBB41002B00DA7DE743466646020018
:10237C000094019519810CE07B00DB19DB00F3184C
:10238C00009801999C68DD68001BA941002904DBB9
:10239C001A000023D75E002FEEDA5B461F805346EF
:1023AC00138043469B881BB2002B00DA61E743463F
:1023BC001A69EFF3108172B61368002BFCD0BFF3CF
:1023CC005F8F43469B8842461BB29A4601235B4271
:1023DC0093801369BFF35F8F00221A6081F310881A
:1023EC005346002B00DA44E743465B699C460823BE
:1023FC0043449B4653465F0043465744FF00082224
:10240C009A5E67445E46BC68FD68002A19DB3B0097
:10241C000094019567469C4604E01E000023F25E82
:10242C00002A0BDB0098019953009B18DB00FB186A
:10243C009C68DD68001BA9410029EEDA6346BC46A6
:10244C001F005346338000217B5E3A809A46002B56
:10245C00D0DA43469B79002B00D10FE7002342468C
:10246C009371434646460821595E08364B1C23D0CF
:10247C0047468C46556902E006004B1C17D04B00B2
:10248C005B18DB00E8180A00E95E43881BB2002BDE
:10249C00F2DA01235B42DC178360C4606245ECD046
:1024AC0031803B89944603803A814B1CE7D16446CA
:1024BC00B846002C00DBE7E640BF05B0F0BCBB46DD
:1024CC00B246A946A046F0BD6B1C00D0E8E6F2E689
:1024DC005B465C69200023699847002821D15B4644
:1024EC0042461B8813811269EFF3108372B6116890
:1024FC000029FCD0BFF35F8F4246594652880A80B0
:10250C004246514651801269BFF35F8F0021116022
:10251C0083F31088A7E6084800F090F924184D4181
:10252C000CE765682468FEE6002C00D1CDE6C3E715
:10253C00741601203C7005400040054059180020DD
:10254C0070B52E4C2569002D04D00A212C48FFF7BC
:10255C0027FE70BD2B4E0321300000F065F9E660BC
:10256C0000F01CFA284B03229C46D02322701B0639
:10257C001B6801216370254B6044A3600F2380000E
:10258C0020610220638063694942A1801980023175
:10259C00198647311D83585218315A5275325C399D
:1025AC00995218320131995218320131995218321C
:1025BC0001319952083518329D5202311832995214
:1025CC0018320131995218320131995218320131B5
:1025DC0099521832013199521832013199520C4BDF
:1025EC000C49DC600130356200F03AFA012103201D
:1025FC0000F018FA084B1D60A7E7C0467840002091
:10260C00104001200040054040000034FFFF100046
:10261C0074160120591800203860054070B5C64664
:10262C00010000B50469EFF3108C72B62068002825
:10263C00FCD0BFF35F8F02200D5E48696C008046B2
:10264C006419E4004444002D01DB208848800869AB
:10265C00BFF35F8F002606608CF31088002D30DBF3
:10266C00E36063880598013320615B0406985B0C7A
:10267C00A26060611A1C002B21D090B22B046280E6
:10268C0018430A69EFF3108672B61368002BFCD05E
:10269C00BFF35F8F8B8823808D800B69BFF35F8FB7
:1026AC0000221A6086F310880B7801329A40CB68AE
:1026BC0005498C4663441A6040BCB04670BD01228B
:1026CC00DBE701204042F7E73C20000010B54389CE
:1026DC000A14934233DD53009B184269DB00944685
:1026EC0004696344EFF3108C72B62268002AFCD0A4
:1026FC00BFF35F8F5A88090494B2090C8A4208D040
:10270C000369BFF35F8F00221A608CF310880020DE
:10271C0010BD8022120214435C8001230269837174
:10272C00BFF35F8F002111608CF31088054902788C
:10273C008C469340C268012062441360E8E7002095
:10274C00E6E7C0463C200000F0B5CE46474680B5D3
:10275C0004000D0083B0EFF30587002F3BD12F4E03
:10276C0081463378F26804339B00916A9B58421A75
:10277C005B1A9A420ED320BF294A0020536AAB42FF
:10278C0003D3926A013091453CD803B0C0BCB94622
:10279C00B046F0BD00F05AF822002B00121A8B4103
:1027AC00002B26DB1F4B2200009330002B000197DF
:1027BC00FFF734FF011E1CDD194BA8465A6A9542DF
:1027CC0025D920BF3000FFF781FF154A0020536A3E
:1027DC009845DAD8D5E7124A0020536A8B42D4D3F5
:1027EC00926A0130A242D0D2581A421E9041C0B215
:1027FC00CBE70B4A0020536AAB42C6D3926A012046
:10280C009145C2D9E81A421E9041C0B2BDE79B6AFD
:10281C009C42D7D99542D5D1D3E7C0467840002009
:10282C00004005402918002010B5024A024800F06B
:10283C0045F810BDFC3E0020305600200300416AD4
:10284C000A00986A596A8A42FAD17047034B596A4E
:10285C000A00986A596A9142FAD1704700400540C3
:10286C000FB400B5084883B001F03CF8049B002B72
:10287C0007D005A91800019100F0B8FE034801F03B
:10288C0031F8012000F0CAFE203F0020303F00202C
:10289C00EFF3108072B6034A1368002BFCD0BFF321
:1028AC005F8F70472C0100D0BFF35F8F0022024B6B
:1028BC001A6080F3108870472C0100D070B5EFF3CC
:1028CC00108C72B60D4D2B68002BFCD0BFF35F8FB4
:1028DC000724CB08C618C05C01230C40A3401C0085
:1028EC000440034207D103433370BFF35F8F2C6066
:1028FC008CF3108870BD1000FFF7B2FF2C0100D0D4
:10290C00F8B54746CE46884680B5EFF3108C72B6C4
:10291C00214D2C68002CFCD0BFF35F8F9A422CD831
:10292C00D4080727055D061901241740BC402C422A
:10293C001FD007210127894609E0D408055D061937
:10294C004C4639001440A1400C00294211D00132F0
:10295C009342F2D201204042BFF35F8F00220E4B14
:10296C001A608CF3108800280FDBC0BCB946B04647
:10297C00F8BD2C4310003470EEE7BFF35F8F0023DB
:10298C002B608CF31088012040424346002BECD086
:10299C000898FFF765FFC0462C0100D0044A107858
:1029AC00431CDBB2172B00D9102313707047C046A1
:1029BC009040002010B50100024A0348FFF77EFF4B
:1029CC0010BDC046343F0020345600200021044B7B
:1029DC00044ABFF35F8F02C39342FAD17047C046DB
:1029EC00000100D0800100D0044B9C466044800064
:1029FC00BFF35F8F002303607047C0464000003474
:102A0C00054B064A1360064A136053609360D3600B
:102A1C0013615361936170478080808000E400E013
:102A2C0004E400E01F2318401E3B8340002905D01E
:102A3C00C021044A49005350136070478022014959
:102A4C008B50FAE700E100E001228240034B1B6847
:102A5C0013405A1E9341D8B27047C04600E100E0C3
:102A6C0070B50D00EFF3108672B60F4A1368002B89
:102A7C00FCD0BFF35F8F0D4B10309B6884001B594B
:102A8C000B4A934203D09D4201D000F099FB074BB7
:102A9C009B681D51BFF35F8FBFF35F8F0022024B0A
:102AAC001A6086F3108870BD240100D000ED00E0A0
:102ABC00CD01001010B54024084A83009A18126802
:102ACC00C0005440C0222240054CA44663441A6006
:102ADC00044B9C466044416010BDC04604C001409C
:102AEC0004D00140004001400B4B80009C466044E8
:102AFC0000290ED100230431002A00D119008022B4
:102B0C0003685201594094460C2360440B40036007
:102B1C0070470C210823EFE704C001400123D022A9
:102B2C0083404021120693629361094A83009A18EC
:102B3C001268C0005140C0220A4006498C466344CA
:102B4C001A60054B9C460523604443607047C046A1
:102B5C0004C0014004D0014000400140F8B5DE46FD
:102B6C004E4657464546E0B58B4605000A99180077
:102B7C00160000F01DFC0A9B6C001F02324B6419FE
:102B8C009C46A4006444636881469F4200D96760F8
:102B9C002B1FDBB29846012B30D9C02380229B011E
:102BAC00E31812011A60294BAD0059599A460029B5
:102BBC001BD1226876017240E026802316404246E3
:102BCC005B01E3181E60012A30D9802380229B010F
:102BDC00E31812011A6053464A4667605A51F0BC1A
:102BEC00BB46B246A946A046F8BD586900F0E0FBCA
:102BFC00431C5800C0180338FDD2DAE75B46012BA2
:102C0C00CBD1C02303229B01E3181A60023AA368BC
:102C1C001A42FCD0E0232268760156401E408023E5
:102C2C000A4A5B019246E3181E60AD005A462168C1
:102C3C00514003220A401A6001225B469A40A36865
:102C4C001A42FCD0C1E7C046008000403C56002030
:102C5C00F0B546464F46D646C0B51F00344B44002F
:102C6C009C462418A4006444636888461600FF2B15
:102C7C0002D880235B006360031FDBB29A46012BF2
:102C8C0030D9C02380229B01E31812011A60294B12
:102C9C0085005959994600291BD12268760172404A
:102CAC00E0268023164052465B01E3181E60012A81
:102CBC0030D9802380229B01E31812011A608023F3
:102CCC005B0063604B465F51E0BCBA46B146A84618
:102CDC00F0BD586900F06CFB431C5800C018033859
:102CEC00FDD2DAE74346012BCBD1C02303229B0153
:102CFC00E3181A60023AA3681A42FCD0E023226857
:102D0C00760156401E4080230A4A5B019146E31827
:102D1C001E60850042462168514003220A401A6019
:102D2C00012342469340A2681342FCD0C1E7C0463F
:102D3C00008000403C560020014B8000C05870477A
:102D4C003C560020F0B5DE464E4645465746E0B5AB
:102D5C005C4B15005A6881468B4683B0FF2A02D81B
:102D6C00802252005A60584B012198460323424658
:102D7C001360544A93681942FCD020201368534EB8
:102D8C005840E0230340336013684E4A4B40032104
:102D9C0019403160022193681942FCD080234C4FBA
:102DAC001B013B6080235B0053604A4C9A464A4BA4
:102DBC004A46636101215B464848009500F060F982
:102DCC0059464846694300F0F3FA454B05005A68EA
:102DDC00FF2A01D852465A608022424B21691201C7
:102DEC001A60002907D0606900F0E2FA431C580011
:102DFC00C0180338FDD2E022394B3B4819680A4011
:102E0C00022102601A68514003220A400421026028
:102E1C009A681142FCD08021344A09011160802249
:102E2C0052005A60324B2361264B5968FF2900D857
:102E3C005A604246032301211360224A93681942C7
:102E4C00FCD0E02310680340336013681D4A4B40EC
:102E5C00032119403160022193681942FCD0802370
:102E6C0080211B013B604900224B516065615A680F
:102E7C00FF2A00D8596080221F4BA16912011A60E9
:102E8C00002907D0606900F093FA431C5800C01861
:102E9C000338FDD2402217490B685A40E0231340F7
:102EAC00164A13608022164B12011A6080235B00B5
:102EBC004B60094BA36103B0F0BCBB46B246A946BC
:102ECC00A046F0BD3C8000403CB000403C9000402F
:102EDC003CA000403C560020006CDC02008002400C
:102EEC003080004030B000403090004030A00040B6
:102EFC00001BB7004880004048B00040489000409C
:102F0C0048A00040F0B54E465746DE464546E0B573
:102F1C0085B00393554B06009A46A0235B00994657
:102F2C000191029201235B429C46E1444B460F2BDC
:102F3C0000D198E04E4F4F4B072457449A4569D81F
:102F4C0021003800614300F033FA864248D0631EFA
:102F5C009846012C5ED01D0065433800290000F016
:102F6C0027FA86425AD0A31E9B46022C5CD02D1BFE
:102F7C002900380000F01CFA864257D0E31E9B460D
:102F8C00032C6ED02D1B2900380000F011FA86425C
:102F9C0050D0231F9B46042C52D02D1B29003800E7
:102FAC0000F006FA86424DD0631F9B46052C4FD08D
:102FBC002D1B2900380000F0FBF986424AD043460D
:102FCC00052B4CD03800E91F00F0F2F986421CD0DA
:102FDC00062421003800614300F0EAF98642B6D19C
:102FEC000029B4D1A0464A46234B01205343019AF1
:102FFC0013604246029B1C60039B1A6005B0F0BC38
:10300C00BB46B246A946A046F0BD0029E0D101233B
:10301C009846E8E7194B9C46E24483E70029E2D046
:10302C00A31E9B46022CA2D1012489E70029A5D11D
:10303C00D846D8E70029FBD0231F9B46042CACD1E3
:10304C0003247DE70029F3D0631F9B46052CAFD1E9
:10305C00042475E70029EBD04346052BB2D1052497
:10306C006EE702246CE70020C8E7C04670F72E001C
:10307C00B0710B0050F80C00001BB70020D1FFFF03
:10308C00F8B5040020481D0017000E0000F090F960
:10309C000100380000F08CF9069B29041B0319432E
:1030AC002368002B1EDB194B194DE21853425A4171
:1030BC0080235B019C461203164B62441A60164B2C
:1030CC001A6017002B689F43FBD1144B2660E21843
:1030DC002123A06013602368002BFCDA0823E16035
:1030EC001360F8BD3F2322681340B342DBD1A368C1
:1030FC001B051B0D8342D6D1EE22E368D20213408E
:10310C008B42D0D1EDE7C046001BB7000040FDBF9D
:10311C0008C0004000E0004000F000400430000017
:10312C008023024A9B000B43D3627047008005400A
:10313C00142310B50100188804331B88984710BD60
:10314C00162310B50100188802331B88984710BD50
:10315C00F8B54746CE4680B50F1E19D014239946B4
:10316C00043304000025012698464B461888434634
:10317C0021681B88984701C4431E98410135404281
:10318C000640AF42F1D13000C0BCB946B046F8BDE4
:10319C000126F8E7AA23064A1B0113602F230549D1
:1031AC00D360054B19605368002BFCDA7047C0469E
:1031BC000040024000B0FA00006002407047C04678
:1031CC0010B50148FFF74CFB543F002070B5074D7C
:1031DC00074EB54209D20024013E761BB60808CD35
:1031EC00984723000134B342F9D170BD1049002037
:1031FC004C49002070B5074D074EB54209D200244A
:10320C00013E761BB60808CD984723000134B34223
:10321C00F9D170BD444900204C490020054B064AA9
:10322C0006491A60064A074B1A6010000B6898434F
:10323C00FBD1704700E00040BFCDFBFE08C0004052
:10324C00FE7F3C0000F00040044BDB6C002B03D1F4
:10325C008022034BD2021A607047C0460000115006
:10326C004C201150044A054B1A60054A1368DB01C7
:10327C008033FBD17047C046FFFFFF0100F00040D8
:10328C0008C000404022034B9A675A671A67DA66F7
:10329C007047C04600F0014010B5FFF797FB10BD1A
:1032AC0070B5044D044C2800C022A16800F090F9C0
:1032BC00A56070BD0000002000ED00E0002310B5FB
:1032CC00294C82B0A367FFF765FF0122274B1A60D8
:1032DC00636C012BFCD10322254B1A60224A936BA1
:1032EC00012BFCD1013300930121224A22480433E3
:1032FC00FFF7C6FE052301210093204A2048FFF763
:10330C00BFFE0022022104201E4BFFF7A1FC00226D
:10331C00012105201C4BFFF79BFC002200210720FC
:10332C001A4BFFF795FC002200210820174BFFF7E2
:10333C008FFC8023DB000093002200210920134B1B
:10334C00FFF70CFC0022104B00210620FFF780FC3D
:10335C000420FFF7F1FC0E4900F02AF801000020D0
:10336C00FFF7DEFE02B010BD008000403CB0004014
:10337C0030B00040002F685900800240008C864716
:10338C0000C00240001BB70040597307006CDC0200
:10339C0040420F0001480421014B1847A040002077
:1033AC0071270020014B9B6818470000A0400020AB
:1033BC00114A936F9B0813D210665166002905D0F1
:1033CC00FFE7FFE7FFE7516F106F704704B5002868
:1033DC0001D00020C04300F093FC002104BDC04686
:1033EC00F0B5146E556E576F166FFFF7E5FF146648
:1033FC00556657671667F0BD000000D0132370B5F3
:10340C001D78012D19D014DD1E48FFF799FE06001A
:10341C001D48FFF795FE1D4C80223100200000F066
:10342C00D7F8022D06D01A48FFF782FE194B186008
:10343C0070BD164C184BA364F5E7174B134C236067
:10344C006360A360E36023616361A361E361236252
:10345C006362A362E36223636363A363E363236432
:10346C006364A364E36423656365A365E365236612
:10347C006366A366E36623676367A367E367A36476
:10348C00D1E7C0465344000053460000D04A002008
:10349C004C3300000C400120BD2A002007B56046CB
:1034AC0001880A0A0230DF2AFAD1C9B2820804D391
:1034BC00028840880004104300E00068014A505024
:1034CC00039007BDD04A0020132310B512481C7876
:1034DC00FFF736FE0100012C0AD003DD80220F48D5
:1034EC0000F076F80E48FFF723FE0E4B186010BD67
:1034FC000A4C5422200000F06BF80B4B6365A3655B
:10350C00E36523666366A366E36623676367A36765
:10351C00E3672362E361E5E753460000D04B0020EC
:10352C004C3300000C4001204D2B002007B56046A9
:10353C0001880A0A0230DF2AFAD1C9B2820804D300
:10354C00028840880004104300E00068014A505093
:10355C00039007BDD04B002070B504000A4E30001C
:10356C0001F016F8200000F0CDFB0500300001F052
:10357C0081F8002D05D0054B2C199C4201D8280050
:10358C0070BD0348FFF76CF90049002000000420CF
:10359C00603F002070B50400054D280000F0F8FFD6
:1035AC00200000F0B9FB280001F064F870BDC046A3
:1035BC000049002001480421014B1847B04000206D
:1035CC0071270020014B1B6818470000B0400020F9
:1035DC00014B5B6818470000B040002010B5002874
:1035EC0000D110BD00F032F9FBE7C04610B5094A16
:1035FC000300146884B0002C08D001220091064806
:10360C00524203A9A047012004B010BD00F06AF992
:10361C000020F9E770560020FD2B002000BEFDE7CE
:10362C00094A03001068002805D00849C3188B42CA
:10363C0007D81360704706480449C31810608B42C2
:10364C00F7D901204042F5E76C5600200000042019
:10365C002840012010B5FFF7E1FFC04670B5FFF719
:10366C00B5FD074D074EB54209D20024013E761B2D
:10367C00B60808CD984723000134B342F9D170BD88
:10368C004C49002050490020030010B508001100DF
:10369C001B68984710BDC046F0B546464F46D64607
:1036AC00C0B5437D80460E001700002B46D0002A83
:1036BC003FDD4B1E9946244B0125002400209A46E1
:1036CC000DE04B461B5D0D3B5A425341325DDBB264
:1036DC000A2A0BD02B00013401359F421ADD002C35
:1036EC00EFD14346325D1B7D0A2AF3D1002BF1D179
:1036FC00A04204DA4346211A1B6830189847434607
:10370C0050461B6802219847013428002B000135D4
:10371C009F42E4DC874204DD4346391A1B683018AB
:10372C009847F619013E33780D3B5A4253414246B5
:10373C001375E0BCBA46B146A846F0BD036811004B
:10374C0030009847F5E7C046FC3F0020F0B5DE4658
:10375C0057464E464546E0B585B017001C0006009E
:10376C000D00FFF773F80023314A12184B41002B60
:10377C0059DB304908008A4600F02EFF01906B1C83
:10378C0003D1300000F0A2FD0500002C26D12A4BFD
:10379C0098462A4B1C68002C15D0002F21D1284F9D
:1037AC0002E02469002C0ED02368002BF9D03B6872
:1037BC00002B01D0A342F4D120002A003100C047D5
:1037CC002469002CF0D1019B002B28D1280005B0D6
:1037DC00F0BCBB46B246A946A046F0BD194B984674
:1037EC00D7E7174B994602ABDF1D0A239B4602E035
:1037FC002469002CE7D02368002BF9D04B461B68BA
:10380C00002B01D0A342F3D12A0031002000C04785
:10381C005B460122390020003B70C047E8E7504668
:10382C0000F028FFD2E70122074B5242A1E7C04625
:10383C0040420F0008490020A92C002064560020AB
:10384C0068560020B92C0020FFFFFF7FF0B5CE4654
:10385C00474680B583B06B460600DD1D2870FEF729
:10386C00F5FF00231A4A12184B41002B2BDB194988
:10387C000800884600F0B0FE174B81461C68002CEF
:10388C0014D0164F02E02469002C0FD02368002BB3
:10389C00F9D03B68002B01D0A342F4D120000122C7
:1038AC002900FFF7F9FE2469002CEFD14B46002BC1
:1038BC0005D1300003B0C0BCB946B046F0BD40469F
:1038CC0000F0D8FEF5E70122054B5242CFE7C04687
:1038DC0040420F0008490020645600206856002022
:1038EC00FFFFFF7F70B5040000F0F0FC0123010026
:1038FC00050001222000FFF729FF084B1C68002C53
:10390C0006D06368002B05D098472469002CF8D1A9
:10391C00280070BD2469002CF3D1F9E7645600200F
:10392C0000B5054B83B00100009300220B23034824
:10393C00FEF7E6FF03B000BD004000201840012058
:10394C00084A0B009446604410B5000D012806D0BF
:10395C00054A8100C9180548FEF7B0FF10BD044A9E
:10396C00F7E7C0460000E0AF444000203856002086
:10397C0020400020F0B5DE4645464E465746884668
:10398C00E0B583B0050005240190FEF781FF4246A7
:10399C0011791457324A2B00944663441B0D9B003B
:1039AC009C46304A81461300934662469858012340
:1039BC008B400090013B002C33DB2022521A9442A6
:1039CC0022DCA34018421FD14246126825009246C1
:1039DC00424692791E00002A3ED1002200290DD0C9
:1039EC0057465300FF5A7B0B00D17F19AB18019837
:1039FC0012339B0001321F508A42F1D35B46624660
:103A0C0000983043985001E0012464424846FEF788
:103A1C004BFF200003B0F0BCBB46B246A946A04603
:103A2C00F0BD2024641A0DD41E00A64025000642C9
:103A3C0006D10AE01E00A640009A2500164204D0CA
:103A4C00013CF7D209246442E0E743461B689A46DE
:103A5C0043469B79002BC0D014246442D6E7C04661
:103A6C000000E0AF244D0020F0B5DE4657464E4630
:103A7C0045468B46E0B51C0085B04B0003935B4478
:103A8C00DB00C5182F00DC3716003A682B000092BB
:103A9C002A00CC321268029001921B4A9446802272
:103AAC00634492021A60002C19D08023DB049A46DE
:103ABC0001239946E0231B029846D8352000FFF7D6
:103ACC0071FC5246430113433B6033004A46C340EA
:103ADC001340424613432B60631E1C40EED1029BE5
:103AEC0003989C465844C00060440300009ADC33A1
:103AFC001A60019BCC30036005B0F0BCBB46B246EB
:103B0C00A946A046F0BDC046CC300000F0B5DE465C
:103B1C0057464E4645468B46E0B51C0085B04B00DB
:103B2C0003935B44DB00C5182F00DC3716003A68A2
:103B3C002B0000922A00CC321268029001921A4A91
:103B4C0094468022634492021A60002C18D0802381
:103B5C00DB049A4601239946144BD835984620002D
:103B6C00FFF720FC5246430113433B6033004A46A7
:103B7C00C3401340424613432B60631E1C40EED1DE
:103B8C00029B03989C465844C00060440300009A72
:103B9C00DC331A60019BCC30036005B0F0BCBB4633
:103BAC00B246A946A046F0BDCC30000080E0000033
:103BBC00F0B54E464546DE465746E0B583B08946DD
:103BCC000CA90D7801901F2A48D84946490088460F
:103BDC004944C900461837003400DC373868CC3407
:103BEC0083462068310082461E4880248446A40205
:103BFC0061440C60691E8D411F216D420D401A49B4
:103C0C008C466544052B0ED9A02149058C461F21F5
:103C1C00D8366046540104430532053B3C600A40EB
:103C2C003560052BF5D8414652019B061343494498
:103C3C00019AC90050180200DC3213600300D8331B
:103C4C001D605B4613605346CC300360002003B00C
:103C5C00F0BCBB46B246A946A046F0BD052040428A
:103C6C00F5E7C046CC30000080E00000F0B5012440
:103C7C008C401D000368A34303604B005C18E400F8
:103C8C0004192600C836002D28D02F68DC34376084
:103C9C00AF68043677606F68ED6837602560164D45
:103CAC005B18AC468025DB00C41864442D062560E7
:103CBC002560124C0D1D8C40846001242600AE4002
:103CCC00802508318C401F21AD014519C0180A40D0
:103CDC00D8302E602C6002600020F0BD80277F025F
:103CEC003760C0273F03B760F82704367F02DC3407
:103CFC0037602560D3E7C046D010000001010101F8
:103D0C007047C04610B5034B0100186800F00EF860
:103D1C0010BDC046C040002010B5034B0100186810
:103D2C0000F050FB10BDC046C0400020F0B54E4620
:103D3C004546DE465746E0B50D000B35060083B010
:103D4C00162D22D8102900D9B2E000F0A9FA1025BE
:103D5C0018230220CC4FFB181A005C68083A9442D6
:103D6C0000D1B5E0032362689A431300E268A168AE
:103D7C00CA6091600122E318596830000A435A6006
:103D8C0000F090FA2000083095E007239D4300D501
:103D9C008EE0A94200D98BE000F082FAFC235B0094
:103DAC009D4200D2A1E1680A00D18BE0042800D921
:103DBC0074E138239846A80980443930C100B24FC9
:103DCC0079184C680839A1420ED003239C4604E0B4
:103DDC00002ACBDAE468A14206D0624663689343BA
:103DEC005A1B0F2AF4DD40463A003C6908329442D3
:103DFC0000D178E003236168994389460B00491B85
:103E0C000F2900DD75E17A613A610029B2DA80226E
:103E1C009200914500D310E15909DA0801238B4037
:103E2C00D2007968D2190B4391687B60E260A16083
:103E3C009460CC60012182109140994259D80B4278
:103E4C0005D103229043490004300B42FBD00323DD
:103E5C009846C3009946B944CC4682466346DC6812
:103E6C00A44507D126E1002A00DB2FE1E468A44534
:103E7C0000D11FE14246636893435A1B0F2AF2DDBF
:103E8C0001208046611905436560A068E568083724
:103E9C00C560A86040461043F960B9604860CF60C7
:103EAC0030008F60E25000F0FDF92000083002E095
:103EBC000C230020336003B0F0BCBB46B246A946CD
:103ECC00A046F0BD80213F2340209846890076E72C
:103EDC00DC680230A34200D044E73A003C69083267
:103EEC00944200D086E701217B6882109140994270
:103EFC00A5D90323BC6862689A439146954203D8BE
:103F0C00531B0F2B00DD8AE023004B445F4A0193C7
:103F1C005F4B93469A4612681B68EB18013200D12E
:103F2C0036E15C4A944663441B0B1B030093300040
:103F3C00009900F0B9F903008046013300D1F3E099
:103F4C00019B834200D9EDE0524600985268030071
:103F5C009446514663444B6001991A00414500D187
:103F6C004BE15B461B68013300D150E1434601999C
:103F7C005B1A9A1853465A600723424641461A4028
:103F8C000192194200D10DE108239846881A424B40
:103F9C000099804441449B1A5B1A1B051B0D009130
:103FAC00300019009B4600F07FF9431C00D14AE118
:103FBC004346C01A03005B440093534652465B6869
:103FCC0001215B44536042464046BA60009A0A4362
:103FDC004260BC4200D11EE14A460F2A00D81CE1C7
:103FEC0007200C3A82436068014005201143616050
:103FFC00A118486088600F2A00D92FE14246444638
:10400C0052685146C96A994201D25146CB62514617
:10401C00096B994200D389E051460B6386E001227B
:10402C00290013431143651961603000BD606B605A
:10403C0000F038F9200008303DE75A0A042A6BD901
:10404C00142A00D9BEE011005C325B31D200082387
:10405C005B429C46BA18944463469A68032398467C
:10406C00944500D197E0434651689943494502D99C
:10407C0092689445F7D1D3689C467B686146A260F0
:10408C00E1608C60D460D5E6F8440020F044002058
:10409C00EC4C00200F10000008100000142852D91E
:1040AC00542800D996E06E239846280B80446F3034
:1040BC00C10084E608239B46073BDC449B46DA445C
:1040CC0043465246134200D0C8E64CE00122E318A6
:1040DC00596830000A435A60E368A268D3609A605A
:1040EC0000F0E0F820000830E5E62B00E808083383
:1040FC0030E6012360191D43656078613861C26048
:10410C0082601A004B460A4342603000E15000F0D6
:10411C00C9F820000830CEE69A091100393238313E
:10412C00D20094E7BC4260D0BC68626803239A4317
:10413C00531B954202D80F2B00DD70E7300000F0C6
:10414C00B1F80020B7E65B23984680445C30C10090
:10415C0035E608235B429C46E1444B469B6801389C
:10416C004B4500D097E043460342F2D17B688B432A
:10417C007B604900994200D9BBE6002904D1B8E61E
:10418C00042294464900E2440B42F9D0504660E6C2
:10419C0010330093CBE68910023B8B4079680B43BC
:1041AC007B606BE7009B300043445B421B051B0D9F
:1041BC0019009B4600F078F8431C00D0F8E6002369
:1041CC009B46FAE6542A2AD81A0B11006F326E312C
:1041DC00D2003CE7AA235B0098422AD8DD3B9846E4
:1041EC00E80B80447830C100E9E553465B68009ADF
:1041FC009C46534662445A60B3E6090500D0B0E6CB
:10420C000200BC684A4401310A436260F9E65B462D
:10421C0042461A60B0E64446F3E641608EE7AA21B6
:10422C0049008A4224D8DA0B110078327731D20057
:10423C000DE71A4B984224D87C239846A80C80444E
:10424C007D30C100BBE5009A019B94464246083B79
:10425C0063449B1A009300239B46AEE6210030007A
:10426C00083100F0AFF85346BC685B686268C8E67A
:10427C000A498A420BD89A0C11007D327C31D2004B
:10428C00E5E6FE217E237F209846890097E5FE22F5
:10429C007E219200DBE67B686BE7C046540500008C
:1042AC007047C0467047C046002370B5064D0400E9
:1042BC0008002B60FFF7B4F9431C00D070BD2B68CD
:1042CC00002BFBD02360F9E7204D002010B58307AD
:1042DC000AD00300032102E001330B4205D01A7807
:1042EC00002AF9D1181A10BD030019680C4A0D4C9C
:1042FC008A188A4322420FD15968094A04338A1812
:10430C008A43224208D15968054A04338A188A43E1
:10431C002242F1D000E001331A78002AFBD1E1E708
:10432C00FFFEFEFE80808080F8B50C000500FFF7D4
:10433C00B7FF204FBB685E6803239E431E4B341BA4
:10434C009C466444240B013C113324039C4207DB40
:10435C0000212800FFF7A8FFBB689B19984204D0E6
:10436C002800FFF79FFF0020F8BD28006142FFF7EF
:10437C009BFF431C0DD00122BB68361B16435E60AD
:10438C000E4B28001A68141B1C60FFF78BFF0120D2
:10439C00EAE700212800FFF787FFBA68831A0F2B82
:1043AC00DEDD07490968401A0449086001210B4306
:1043BC005360D5E7F8440020EF0F0000F04C0020CC
:1043CC00F0440020F0B5C64605000C0000B50029ED
:1043DC004FD0FFF765FF210008394C6801262200F9
:1043EC000320B2438F187B688343624898468368E6
:1043FC00BB426AD043467B6026421ED108239C46B2
:10440C000C688444091B12198C6864454FD0CB6826
:10441C00E3609C604346FC186468344211D1BB686D
:10442C00554C4244A34200D17EE0FC68DC60A360A2
:10443C00012313434B608A5006E0FC186468344235
:10444C00EDD016434E603A6080239B009A4213D203
:10445C005409D3080122A2404468DB002243426085
:10446C0018188368C8608B608160D9602800FFF7DA
:10447C0019FF80BCB846F0BD530A042B3ED89409F2
:10448C00260039343836E40004192368083C032725
:10449C009C4242D05868B843904202D99B689C42D7
:1044AC00F8D1DC68CC608B60A160D960DEE7434654
:1044BC00F8184068304257D1FB68B868424416433C
:1044CC00C36098604E608A50D0E713004344264284
:1044DC0006D10A68891A8C689B18CA68E2609460D5
:1044EC0001221A434A60254A816012689A42BDD85B
:1044FC00234B28001968FFF717FFB7E7142B07D9D0
:10450C00542B1AD8140B26006F346E36E400BBE71C
:10451C001E005C335B36DC00B6E70122B610B240FD
:10452C00466832434260BDE7D9609960CB608B60CE
:10453C00012313434B608A5098E7AA246400A342DA
:10454C0005D8D40B260078347736E4009CE70D4C64
:10455C00A34205D8940C26007D347C36E40093E706
:10456C00FE247E26A4008FE7330013434B603A6091
:10457C007CE7C046F844002000450020F4440020AD
:0C458C00EC4C002054050000F8B5C046BF
:10459800D02330B500251B0600245D5706E00368CC
:1045A800BFF35F8F1C6081F3108820BF0268EFF3B0
:1045B800108172B61368002BFCD0BFF35F8F0379AC
:1045C8007F2BECD905710368BFF35F8F00221A6057
:1045D80081F3108830BDC046F0B5C646150000B559
:1045E80004001E000268EFF3108172B61368002BF6
:1045F800FCD0BFF35F8F0423E356002B2DDB22682A
:10460800BFF35F8F0020106081F31088D02212065C
:10461800127852B290469A4203D1002080BCB84624
:10462800F0BD00270BE02368BFF35F8F1F6081F3A5
:10463800108828003100FEF787F80028EDD122689D
:10464800EFF3108172B61368002BFCD0BFF35F8FB5
:1046580023797F2BE7D9434602E0D0231B061B684A
:1046680023712368BFF35F8F00221A6081F31088DB
:104678000120D3E70268EFF3108172B61368002BAC
:10468800FCD0BFF35F8FFF2303710368BFF35F8F15
:1046980000221A6081F3108840BF704710B5084C9B
:1046A8002378002B0AD18023064807495B051A683E
:1046B800C25004338B42FAD10123237010BDC04687
:1046C8001A4001202C4D00100001001010B5024BBB
:1046D8000133984710BDC0462C4D0020F0B580230B
:1046E800D6464F464646421804000D00C0B59B0307
:1046F8009A4227D8142718263888338813499847A8
:104708003388824612493888984733888146114948
:104718003888984733881049804638889847060073
:10472800FFF7BCFFD047C84780222900D8232000C4
:104738005202C047B047FFF7C9FFE0BCBA46B146CE
:10474800A846F0BDFEF73CFDD4E7C0464946000048
:10475800455800005245000046430000F8B54E4653
:104768004546DE4657468023E0B51500821804000A
:1047780089469B039A4226D81427182638883388F6
:1047880012499847338883461149388898473388AF
:10479800824610493888984733880F4980463888B8
:1047A80098470600FFF77AFFD847D0472A004946BE
:1047B8002000C047B047FFF789FFF0BCBB46B246B0
:1047C800A946A046F8BDFEF7FBFCD5E74946000020
:1047D8004558000052500000464300005379737456
:1047E800656D20636C6F636B206F66202575206B89
:1047F800487A2063616E6E6F742062652065786107
:1048080063746C792061636869657665640000008B
:10481800383E00200CFF000003E01A27084005E599
:104828000840CA0006EF0A409A2000000A409A2071
:104838000000050028002D004001450150016D01D0
:104848009200070038003F00C001C701F801FF01CE
:10485800860400209C04002052040020B20400209A
:10486800C4040020D6040020EC0400200205002027
:1048780018050020460500202E0500205E050020B2
:104888005A04002070040020B03E002009000000F7
:104898000960A7604620452142A142A542A142A144
:1048A80042A10000CC3E002008FF0000A08004C107
:1048B80000EB01E445C005C027A04700E43E002006
:1048C8000BFF0000A080C42000EF46C806C0C4202B
:1048D800C42001E027A0C420490000004861726498
:1048E8007761726520616C61726D20256420616C4E
:1048F800726561647920636C61696D6564000000AC
:104908000A2A2A2A2050414E4943202A2A2A0A00E4
:104918000A0000005370696E6C6F636B2025642079
:10492800697320616C726561647920636C61696D7B
:104938006564000048617264206173736572740075
:104948004F7574206F66206D656D6F727900000079
:1049580052656C6561736500626F6F74325F7732A0
:104968003571303830000000322E312E3000000012
:104978007069636F00000000766761004A616E200D
:10498800313820323032360005005250DE65F46886
:1049980038530010060052505422A29D9C3F00201C
:1049A80006005250861C0302983F00200600525011
:1049B800BBFF3CB6903F002006005250ABB360539B
:1049C800883F002006005250E182887F783F00200F
:1049D80006005250D3F07542703F00200D0A0000C7
:1049E8004E6F20444D41206368616E6E656C732084
:1049F80061726520617661696C61626C65000000B6
:104A080050494F203120534D20282564202D203433
:104A18002920616C726561647920636C61696D65D8
:104A28006400000050494F203020534D2025642059
:104A3800616C726561647920636C61696D6564009D
:104A48007476002074B6002001000000746600200F
:104A580074760020900200100000000000000000A2
:104A68000000000000000000000000005049002085
:104A7800100000000000000000000000000000001E
:104A8800503300004C330000543300005233000010
:104A98004D5300004D4300005334000043340000E0
:104AA800C84000200000000000000000B4430020BF
:104AB8001C44002084440020000000000000000086
:104AC80000000000000000000000000000000000DE
:104AD80000000000000000000000000000000000CE
:104AE80000000000000000000000000000000000BE
:104AF80000000000000000000000000000000000AE
:104B0800000000000000000000000000000000009D
:104B1800000000000000000000000000000000008D
:104B2800000000000000000000000000000000007D
:104B3800000000000000000000000000000000006D
:104B4800000000000000000000000000000000005D
:104B580001000000000000000E33CDAB34126DE6FA
:104B6800ECDE05000B000000000000000000000063
:104B7800000000000000000000000000000000002D
:104B8800000000000000000000000000000000001D
:104B9800000000000000000000000000000000000D
:104BA80000000000000000000000000000000000FD
:104ED800FFFFFFFF000002000000000000000000CC
:104EE800F8440020F8440020004500200045002038
:104EF80008450020084500201045002010450020E6
:104F08001845002018450020204500202045002095
:104F18002845002028450020304500203045002045
:104F280038450020384500204045002040450020F5
:104F380048450020484500205045002050450020A5
:104F48005845002058450020604500206045002055
:104F58006845002068450020704500207045002005
:104F680078450020784500208045002080450020B5
:104F78008845002088450020904500209045002065
:104F88009845002098450020A0450020A045002015
:104F9800A8450020A8450020B0450020B0450020C5
:104FA800B8450020B8450020C0450020C045002075
:104FB800C8450020C8450020D0450020D045002025
:104FC800D8450020D8450020E0450020E0450020D5
:104FD800E8450020E8450020F0450020F045002085
:104FE800F8450020F8450020004600200046002033
:104FF80008460020084600201046002010460020E1
:105008001846002018460020204600202046002090
:105018002846002028460020304600203046002040
:1050280038460020384600204046002040460020F0
:1050380048460020484600205046002050460020A0
:105048005846002058460020604600206046002050
:105058006846002068460020704600207046002000
:1050680078460020784600208046002080460020B0
:105078008846002088460020904600209046002060
:105088009846002098460020A0460020A046002010
:10509800A8460020A8460020B0460020B0460020C0
:1050A800B8460020B8460020C0460020C046002070
:1050B800C8460020C8460020D0460020D046002020
:1050C800D8460020D8460020E0460020E0460020D0
:1050D800E8460020E8460020F0460020F046002080
:1050E800F8460020F846002000470020004700202E
:1050F80008470020084700201047002010470020DC
:10510800184700201847002020470020204700208B
:10511800284700202847002030470020304700203B
:1051280038470020384700204047002040470020EB
:10513800484700204847002050470020504700209B
:10514800584700205847002060470020604700204B
:1051580068470020684700207047002070470020FB
:1051680078470020784700208047002080470020AB
:10517800884700208847002090470020904700205B
:105188009847002098470020A0470020A04700200B
:10519800A8470020A8470020B0470020B0470020BB
:1051A800B8470020B8470020C0470020C04700206B
:1051B800C8470020C8470020D0470020D04700201B
:1051C800D8470020D8470020E0470020E0470020CB
:1051D800E8470020E8470020F0470020F04700207B
:1051E800F8470020F8470020004800200048002029
:1051F80008480020084800201048002010480020D7
:105208001848002018480020204800202048002086
:105218002848002028480020304800203048002036
:1052280038480020384800204048002040480020E6
:105238004848002048480020504800205048002096
:105248005848002058480020604800206048002046
:1052580068480020684800207048002070480020F6
:1052680078480020784800208048002080480020A6
:105278008848002088480020904800209048002056
:105288009848002098480020A0480020A048002006
:10529800A8480020A8480020B0480020B0480020B6
:1052A800B8480020B8480020C0480020C048002066
:1052B800C8480020C8480020D0480020D048002016
:1052C800D8480020D8480020E0480020E0480020C6
:1052D800E8480020E8480020F0480020F048002076
:1052E80000000000000000000000000000000000B6
:1052F8003D28002069280020B5290020D52B002052
:105308001D2A0020E92A0020DD2800208528002009
:10531800A5280020B9280020D1170020C128002086
:10532800611B0020DD2700202120002039010020FA
:04000005100001E9FD
:00000001FF
